:020000040800F2
:10000000F80D0020790200083B4F00083F4400082B
:10001000394F0008311E00086D580008000000002C
:1000200000000000000000000000000095540008DF
:100030000320000800000000F55200089754000853
:100040009302000893020008930200087553000809
:10005000930200089302000893020008930200082C
:10006000930200089302000893020008CD1F0008C5
:10007000930200089302000893020008930200080C
:1000800093020008930200089302000893020008FC
:1000900093020008930200089302000893020008EC
:1000A00093020008930200089302000893020008DC
:1000B00093020008255500089302000893020008E7
:1000C00093020008930200089302000893020008BC
:1000D0009302000849580008555800086158000864
:1000E000930200089302000893020008930200089C
:1000F000930200089302000893020008930200088C
:10010000930200089302000893020008930200087B
:10011000930200089302000893020008930200086B
:10012000930200089302000893020008930200085B
:1001300000F002F800F090F80AA090E8000C824469
:100140008344AAF10107DA4501D100F085F8AFF246
:10015000090EBAE80F0013F0010F18BFFB1A43F0A5
:1001600001031847387C0000587C0000103A24BF77
:1001700078C878C1FAD8520724BF30C830C144BF0C
:1001800004680C607047000000230024002500264E
:10019000103A28BF78C1FBD8520728BF30C148BFEA
:1001A0000B6070476E2900F0D482702900F035840E
:1001B000662906F03087652906F02D87672906F045
:1001C0002A87612906F0298703681B0A28BF41F0A6
:1001D0008001692900F0D080642900F0CD80752964
:1001E00000F0CA806F2900F0C283782900F00184F2
:1001F000E92900F05D83E42900F05A83F52900F035
:100200005783EF2900F0BF83F82900F000840368CA
:10021000DB0928BF41F08001632900F0DE827329E9
:1002200000F0E382E32900F0DF87F32900F0E487A0
:10023000002070471FB501F031F8040000200021B4
:1002400006F02CF9401C60600020002106F010F937
:10025000E0601FBD10B510BD00F0F2FF1146FFF7C2
:10026000E9FF05F0A9FC01F0CFF803B4FFF7F2FFB6
:1002700003BC01F017F9000009488047094800470E
:10028000FEE7FEE7FEE7FEE7FEE7FEE7FEE7FEE746
:10029000FEE7FEE704480549054A064B70470000A3
:1002A0002155000831010008F8070020F80D002052
:1002B000F8090020F80900207CB51D4616460C0000
:1002C000009001D02044401E074B7B442A466946DB
:1002D0000190304600F057FA05461CB100206946EF
:1002E00000F064FA28467CBDE90400000FB47CB538
:1002F0000C0009AA009001D02044401E084B7B440A
:1003000069460190089800F03EFA05461CB10020AD
:10031000694600F04BFA28467CBC5DF814FB0000EF
:10032000B504000070B50C460546012A05D02878B2
:10033000800600D5EA69002302E0012305E05B1C8A
:10034000934202D2E05C0028F9D1A869E618C01AED
:10035000A861286A18442862284600F068F904E079
:10036000D5E9012114F8010B9047B442F8D328468F
:1003700000F073F970BD00002DE9F041064600243D
:1003800010687529314616A510D000F077F90028BD
:1003900002DA404213A507E031688A0701D512A5A9
:1003A00002E0490704D511A5012401E000F06FF92E
:1003B00000210A2206F1240709E0B0FBF2FCB0FBA1
:1003C000F2F302FB1C00303078541846491C002818
:1003D000F3D123462A463046BDE8F04100F060B92B
:1003E000000000002D0000002B0000002000000095
:1003F0002DE9F05F894604464FF0000ADFF874B13A
:10040000FB44C0F820A02046E1688847002874D04B
:10041000252806D0D4E901219047206A401C20629B
:10042000F1E700265F462046E16888472028054618
:1004300007DB312D05D2781910F8200C08B10643DE
:10044000F1E7B00701D526F00406C4F81CA0002788
:10045000C4F818A02A2D09D0284605F02CFA38B384
:1004600004EB8708303DC8F8185019E059F8041B10
:10047000204604EB87029161E1688847012F054619
:1004800018D1E069002820DA26F020061DE0D8F80F
:10049000180000EB800005EB40003038C8F8180069
:1004A0002046E1688847054605F005FA0028EED1A8
:1004B000012F0AD02E2D08D12046E16888477F1CE5
:1004C0000546022F46F02006C4DBA069002803DAA7
:1004D000404246F00106A061F00701D026F0100668
:1004E0006C2D0BD0682D09D04C2D39D06A2D35D00C
:1004F000742D35D07A2D33D016E038E0E1682F46E0
:1005000020468847B842054609D16C2F26D04FF4C3
:100510008060E168064320468847054604E06C2F6A
:100520001AD04FF4807006430DB3A5F1410019288D
:1005300002D8203546F400664A4629462046266001
:100540004E46FFF72FFE80B101280BD0F61D26F096
:10055000070000F1080956E74020E4E78020D8E7CB
:100560000020D6E706F104094DE7284652E7206A45
:10057000BDE8F09F3E75000030B505460B462A46A3
:1005800013F8014B12F8010B08B1A042F8D01CB1CE
:10059000002802D06D1CF1E7284630BD10B5431C81
:1005A00002E010F8011B71B18107FAD14FF001325E
:1005B00002C88C1A8C4314EAC211F9D0C01A0A0678
:1005C00003D0C01E10BDC01A10BD0A0401D0801E89
:1005D00010BD0902FCD0401E10BD4FF0000200B556
:1005E000134694469646203922BFA0E80C50A0E856
:1005F0000C50B1F12001BFF4F7AF090728BFA0E804
:100600000C5048BF0CC05DF804EB890028BF40F8CF
:10061000042B08BF704748BF20F8022B11F0804F11
:1006200018BF00F8012B704770477047704770B5CE
:10063000044685690068C10601D5302600E0202601
:10064000C00707D070BDD4E9012130469047206A29
:10065000401C20626D1EF6D570BD70B504468569DC
:100660000078C00707D170BDD4E901212020904750
:10067000206A401C20626D1EF6D570BD09684A05CF
:1006800001D540B27047C905FCD500B27047096872
:100690004A0501D5C0B27047C905FCD580B2704784
:1006A0002DE9F0470D4699469246044600F124088C
:1006B0000168880604D5E06921F01001216000E09E
:1006C0000120A84201DD471B00E00027A1697A193B
:1006D00002EB0900081AA0612078C00602D4204667
:1006E000FFF7A5FF002608E0D4E901211AF806006B
:1006F0009047206A401C761C20624E45F4DB20782F
:10070000C0060AD52046FFF792FF06E0D4E9012192
:1007100030209047206A401C2062381EA7F1010754
:10072000F4DC07E0D4E9012118F805009047206ABD
:10073000401C2062281EA5F10105F3DC2046FFF7CE
:100740008CFF2078000602D50220BDE8F08701204A
:10075000FBE711680268006A530501D508700AE0DA
:10076000D30501D5088006E0130603D5C217C1E9F9
:10077000000200E0086001207047000001694A1C87
:1007800002610878704700B58FB0CDE901310021D2
:10079000059105497944CDE9031011466846FFF7F4
:1007A00027FE0FB000BD0000E5FFFFFF0A6802F85A
:1007B000010B0A607047D1E900239A4202D2531C10
:1007C0000B601070704710B5436913B1AFF3008030
:1007D00001E0FFF7A7FD012010BD127800F1240110
:1007E0000A7000224A700122EDE711684FF0FF32D3
:1007F000E9E700002DE9FF5F15468A460446DFF869
:10080000AC80F8440027D8E900103E46CDE900103E
:1008100010E03AF816106A4602A800F0F1FC411CFC
:1008200007D02178890603D5E269391891420DD89D
:100830000744761C2078800602D5E069B84205DDC1
:10084000AE42E6DB3AF816000028E2D1A069C01BF0
:10085000A0612046FFF7EBFED8E90010CDE90010BB
:10086000002017E03AF818106A4602A800F0C8FC09
:10087000B0F1FF3F81460BD000250DF1080B05E0DC
:10088000D4E901211BF8050090476D1C4D45F7D3B5
:1008900008F10100B0428046E4DB206A384420625F
:1008A0002046FFF7DAFEBDE8FF9F00004E71000012
:1008B0002DE9F0418046D21D22F007020025D2E941
:1008C0000002F52915A614D0011E72F1000106DA06
:1008D0000023D0EB030063EB020211A608E0D8F876
:1008E00000108B0701D50FA602E0490701D50EA61F
:1008F00001251146002408F1240704E000F098F8CF
:1009000030323A55641C50EA0102F7D12B46324688
:1009100021464046BDE8F041FFF7C2BE000000009E
:100920002D0000002B0000002000000030B400214A
:1009300000F1240408E002F00705D208303542EA4D
:100940004372DB086554491C52EA0305F3D104687D
:10095000002310A2250707D5A40600D421B1C4693D
:1009600001230DA2641EC46130BCFFF799BE10B50F
:10097000044621461068FFF78AFE02462046BDE87D
:1009800010400023D2E7D21D22F00701D1E9002355
:10099000CCE700000000000030000000F0B40D467D
:1009A0000188090502D5214C7C4402E01F4C7C449F
:1009B0000E34002100F1240608E002F00F071209AE
:1009C000E75D42EA03721B097754491C52EA0307A8
:1009D000F3D102780023120704D5702D06D009B197
:1009E000022311342246F0BCFFF75ABE0123103413
:1009F000F8E770B504460D4621461068FFF747FE3C
:100A0000024629462046BDE870400023C6E7D21DB5
:100A100022F00703D3E90023C0E70368126843F01C
:100A2000200303600823C3610023B7E7B06F000011
:100A300030B5B0F10A024FEA900E71F100034EEAB0
:100A4000817EB0EB0E0061EB91014FEA101E4EEA81
:100A5000017E10EB0E0041EB11114FEA102E4EEA11
:100A6000016E10EB0E0041EB11214FEA104E4EEAE1
:100A7000014E10EB0E0041EB1141401841F1000115
:100A80004FEAD00040EA41704FEAD10110EB8005F7
:100A90004FEA810444EA907444EB01046D1944EB7D
:100AA0000404521BA3414FF0000348BF0A3200D593
:100AB00030BD401C41F1000130BD70472DE9FF4FB2
:100AC0000C461E464FF0FF378BB0D2E90001DDF82F
:100AD00060800A908A46C1F30A5505B93D46002157
:100AE00008464FF00000BAF1000F00F4400005DAAC
:100AF00000EB80004FF4400101EA50004FEA9059AA
:100B0000B9F1010F00DDB9460A9850EA4A000ED04B
:100B100044F61050A5F2FF3545432F14B8F1000FED
:100B20001ED07542291E1EDDC9F100021CE0B8F17D
:100B3000010F4FF0000001D0302103E0F24305E047
:100B40002154401CB042FBDB3046002200212154DE
:100B50000B99C1F80880C1E900200FB0BDE8F08F03
:100B6000BD1B6D1CDEE74A4600DA694206A800F0AC
:100B7000D9FB06AB93E8070003AB83E807005046B8
:100B80000A9900F096FC8DE80700A0F500501F3888
:100B900000900398002D0ADD42F21F014A460844E6
:100BA000002303A90390684600F0FFFE09E0A0F5CA
:100BB00000504A461F38002303A90390684600F0FE
:100BC00009FF8DE807000004000C03D04FF0FF3050
:100BD000410800E01046B8F1000F03D00022009257
:100BE00015461EE0751E05D4FFF722FF3032625510
:100BF0006D1EF9D5B3460122084302D000227F1CA6
:100C000004E02078302801D100227F1E002A0997B5
:100C100084D01DE0112D07DAFFF70AFF303262554C
:100C20006D1C50EA0102F5D1084302D00098C8B10A
:100C30000EE00021681E05E0235C625C63542254D0
:100C4000401E491C8142F7DBAB46A81B401E0990A1
:100C5000002004F80B000B98099AC0F80880C0E93E
:100C6000002B7AE711264FF0000857E72DE9F04FE7
:100C700088460446D21D22F0070191B0D1E9000157
:100C8000CDE90A0104F0F3FD02460B98C00F01D034
:100C90002D2007E02068810701D52B2002E02021CC
:100CA00001EAC000032A099001D0072A05DB0346A8
:100CB0004146204600F0F6FA0BE12078800601D587
:100CC000E06900E00620B8F1650F814606D0B8F172
:100CD000660F18D0B8F1670F70D131E00020B9F17C
:100CE000110F009001DB112301E009F101030AAAB1
:100CF00001A90CA8FFF7E2FEDDE90C70002609F15E
:100D00000105834647E001204B4600904FF0004725
:100D10000AAA01A90CA8FFF7D1FEDDE90DB00C99D4
:100D20005D46002610B909F101000D18B9EB050068
:100D300003D4C0F1FF3609F10105A5EB09002BE052
:100D4000B9F1010F01DA4FF001090020B9F1110FDB
:100D50000090484601DD112300E003460AAA01A9DC
:100D60000CA8FFF7ABFEDDE90C704D46002683466C
:100D7000207800070AD4AB4500DA5D4601A8012DB2
:100D800004DD411911F8011C302907D04F4502DA62
:100D900017F1040F04DA012082460FE06D1EEEE722
:100DA000002F02DCED1B3E4403E0781CA84200DD6E
:100DB0007D1CB81B00F1010A4FF0004720780007A6
:100DC00003D4AA4501DB4FF0FF3A0021B7F1004FF1
:100DD0000DF143088DF8431024D002202B23002F5F
:100DE00001DA7F422D230A21021EA0F1010000DC5E
:100DF0005FB197FBF1FC97FBF1F201FB1C7C1746FE
:100E00000CF1300C08F801CDEEE7A8F101000370F9
:100E10002188090501D5452100E06521A0F10108DF
:100E200000F8011C09980FA9A1EB0807FF1D00B1EC
:100E30000120411901EBEA70A1693844081A401EEB
:100E4000A0612078C00602D42046FFF7F0FB099885
:100E500028B1D4E901219047206A401C2062207803
:100E6000C00622D52046FFF7E2FB1EE0002E04DB81
:100E7000B34502DD01A8805D00E03020D4E9012106
:100E80009047206A401C2062761CAAF101005FEAAC
:100E9000000A0AD100F002FAC0680168405CD4E997
:100EA00001219047206A401C2062281EA5F10105FF
:100EB000DCDC07E0D4E9012118F8010B9047206A37
:100EC000401C2062381EA7F10107F3DC2046FFF723
:100ED000C4FB032011B041E62DE9F04F04460D4656
:100EE000D21D22F0070089B0D0E900974846394664
:100EF00004F0BDFC0246F80F01D02D2307E0206866
:100F0000810701D52B2302E0202101EAC0038DF8DF
:100F100020300BB1012000E00020032A824601D0DE
:100F2000072A04DB2946204600F0BCF93FE120787F
:100F3000800601D40D2500E0E569C7F30A560D2DA2
:100F400049DA00214FEA175B08464FF00000002FF6
:100F500000F4400007DA00EB80004FF4400100EBA2
:100F6000D07001EA60008115012901DD4FF0FF31E9
:100F700000224FEA850CBCF1180F06D31346ACF1E2
:100F800018004FF08052C24003E04FF4801323FA60
:100F90000CF30CF10C0CBCF1200F04D3ACF1200CC1
:100FA00009FA0CF001E007FA0CF000294FF00048B4
:100FB00001DD18B90FE00ED140450CD319EB020941
:100FC0005F4121B9404502D19F4329EA0209BBEBA9
:100FD000175F00D0761C2088000502D57B48784436
:100FE00002E07A487844193808AA302302F80A3017
:100FF000037C0AF10101002E0AF1020A53546A46E9
:1010000002DC4FF0300101E04FF031014FF00108F8
:101010008DF8001002D0A6F2FF3603E059EA47012E
:1010200000D06B4E002D02DC2178090704D54FF06B
:1010300002082E218DF80110C44600210BE0C7F3F1
:1010400003433F01C35C491C6D1E02F808300529AB
:1010500008F1010801DA002DF1DC00210CE000EBC1
:101060001973491C1B786D1E082902F808304FEAD5
:10107000091908F1010801DA002DF0DC21688B065E
:1010800002D516E0A8F10108E04505DD02EB0803F2
:1010900013F8013C302BF5D0B8F1000F09DD02EB5D
:1010A000080313F8013C2E2B03D1090701D4A8F142
:1010B0000108002D05DD3E2102F808106D1E08F123
:1010C0000108407C002E02F8080008F1010804DA4B
:1010D0002D20764202F8080002E02B2002F80800DA
:1010E0000A214FF47A70864208F101080BDB96FB67
:1010F000F0F3303302F8083096FBF0F308F1010802
:1011000000FB136601E0642E0CDB642096FBF0F319
:10111000303302F8083096FBF0F308F1010800FBC9
:10112000136601E00A2E06DB96FBF1F0303002F880
:10113000080008F1010896FBF1F001FB1060303067
:1011400002F80800A16908F1010808EB050202EBAA
:101150000A00081AA0612078C00602D42046FFF7D2
:1011600066FA216A08AE01EB0A00206204E0D4E9C5
:10117000012116F8010B9047BAF1010AF7D2207845
:10118000C00602D52046FFF752FA6E4609E016F86F
:10119000010B3E280FD0D4E901219047206A401C62
:1011A0002062B8F10108F2D22046FFF756FA09B0E2
:1011B0000320BDE8F08F206A2844206203E0D4E9D0
:1011C0000121302090476D1EEBD3F8E7B569000090
:1011D00002FCFFFF10B5436913B1AFF3008001E0DB
:1011E000FFF708FB012010BD128800F12401828462
:1011F0000022C2840122EDE711684FF0FF32E9E7D7
:1012000070B516460C46054600F040F8036893F8A2
:101210000101012806D0FF2C0FD8185D68B101200C
:101220002C7070BDD3F807013246214603F2071334
:1012300003442846BDE8704018474FF0FF3070BDAA
:10124000754600F0EBF8AE4605006946534620F0BF
:101250000700854618B020B5FFF71CF8BDE8204010
:101260004FF000064FF000074FF000084FF0000B62
:1012700021F00701AC46ACE8C009ACE8C009ACE815
:10128000C009ACE8C0098D467047000010B500F0F9
:1012900005F8001D10BD00BF055200000048704752
:1012A000B40700202DE9F0411F46044603260168DB
:1012B000072A01F4006004DB08B116A505E016A5B5
:1012C00003E008B115A500E015A521F0100020608D
:1012D000A069C01EA0610FB1401EA0612046FFF7AB
:1012E000A6F94FB1D4E9012138469047206A401C45
:1012F0002062C01C206206E0206AFAE7D4E90121DE
:1013000015F8010B9047761EF8D22046FFF7A5F995
:10131000BDE8F0814E414E006E616E00494E4600C0
:10132000696E66002DE9F047814616468AB0354859
:1013300078440DC88DE80D0032487844801C03AC19
:101340000DC884E80D0041F69B300844372190FB1E
:10135000F1F290FBF1F5A5F1800501FB12041B3CB5
:1013600002D56442012000E00020DFF898A080460A
:101370000027FA44AAF1BE0A0EE0E0070AD032467E
:10138000684607EB470101230AEB810100F022FBCD
:101390008DE8070064107F1C002CEED1194F7F44AC
:1013A000AE3F19E0E80715D007EB04100DF1180A5D
:1013B00090E80E008AE80E00C068F04201D198194A
:1013C00008903246012306A903A800F003FB03ABF3
:1013D00083E807006D10641C002DE3D14FF001037A
:1013E00032466946B8F1000F03A802D000F0DDFADA
:1013F00001E000F0EFFAC9E90001C9F808200AB0DD
:10140000BDE8F087F466000010B50446AFF3008035
:101410002046BDE81040FEF728BF00000048704796
:10142000940700204FF0013C50F8042B51F8043B86
:101430009A4221D1A2EB0C03934313EACC1317D1A8
:1014400050F8042B51F8043B9A4215D1A2EB0C033F
:10145000934313EACC130BD150F8042B51F8043BFF
:101460009A4209D1A2EB0C03934313EACC13DBD0CD
:101470004FF00000704700BFD01A01BAB1FA81F1F5
:1014800001F0180122FA01F0CB40C1F12001DBB2DA
:10149000C0B2C01A2CFA01F3D11A914311EAC31158
:1014A000E6D1704701491820ABBEFEE726000200D6
:1014B00070475FEA400C08BF91F0000F4FEA8C23A1
:1014C0004FEAC12243EA51514FEA1C5018BF00F5C0
:1014D000F0404FEA300018BF41F000415FEA6C5C19
:1014E00000F02980BCF1FF3F08BF40F0804070470A
:1014F000130C06BF12044FF0100C4FF0000C130E2B
:1015000004BF12020CF1080C130F04BF12010CF1FE
:10151000040C930F04BF92000CF1020CD30F04BF14
:1015200052000CF1010C11464FF00002A0F11F0017
:10153000A0EB0C00704711F0004F08BF704731F06E
:1015400000413FF4D5AF0B0C06BF09044FF0100C5F
:101550004FF0000C0B0E04BF09020CF1080C0B0F2E
:1015600004BF09010CF1040C8B0F04BF89000CF1BE
:10157000020CCB0F04BF49000CF1010CCCF120038D
:10158000A0EB0C0022FA03F302FA0CF241EA030189
:1015900000F10100704720F07F4C80EA030023F047
:1015A0007F47ACEB070303F57C5300F0004003F1E9
:1015B000FF032DE980494FEA154B09B44FEA144364
:1015C00025EA0B4E24EA03480FF2042606EB132704
:1015D00049083E785FEA320203FB0667C7F5000759
:1015E00007FB06F64FEA54374FEAD64606F10206E5
:1015F00007FB066CCCF1005C4FEA1C472CEA074C59
:1016000007FB06F40CFB06F504EB15464FEA9616AD
:1016100034BF00204FF000404FEAD13706FB07FCF3
:101620004FEA1C4C0CFB0BF7D21B03FB0CF761EBD6
:1016300007010CFB0EF7B0EB074072EB17420CFBF7
:1016400008F734BFA2EB0742B2EB074261EB174148
:101650004FEA0C444FEA910706FB07FC4FEA1C4C8B
:101660000CFB0BF7B0EBC74072EB573203FB0CF7E8
:1016700034BFA2EBC742B2EBC74261EB57310CFB60
:101680000EF7B0EBC70072EB57720CFB08F734BFD4
:10169000A2EBC702B2EBC70261EB5771039F4FEA9F
:1016A000816141EA921104EBCC044FEAD1374FEA51
:1016B000826206FB07FC42EA90124FEA80604FEA22
:1016C0001C4C0CFB0BF7D21B03FB0CF761EB070167
:1016D0000CFB0EF7B0EB074072EB17420CFB08F760
:1016E00034BFA2EB0742B2EB074261EB17414FEA6E
:1016F0008C554FEA910704EB9C2406FB07FC4FEA4C
:101700001C4C0CFB0BF7B0EBC74072EB573203FBE2
:101710000CF734BFA2EBC742B2EBC74261EB5731C3
:101720000CFB0EF7B0EBC70072EB57720CFB08F71F
:1017300034BFA2EBC702B2EBC70261EB577115EBE6
:101740004C254FEA816141EA92114FEA82624FEAE9
:10175000D13742EA901206FB07FC44F100044FEA3D
:1017600080604FEA1C4C0CFB0BF7D21B03FB0CF701
:1017700061EB07010CFB0EF7B0EB074072EB174271
:101780000CFB08F734BFA2EB0742B2EB074261EB58
:10179000174115EB1C154FEA813141EA92414FEA9E
:1017A000823242EA90424FEA80304FEA0C7644F1AE
:1017B000000448EA03434EEA0B484FF0000EB2EB38
:1017C000080C71EB030724BF624639464EEB0E0E40
:1017D0004FF0000B0018524149414BEB0B0BB2EBA1
:1017E000080C71EB03077BF1000B24BF62463946FE
:1017F0004EEB0E0E4FF0000B0018524149414BEBDF
:101800000B0BB2EB080C71EB03077BF1000B24BF51
:10181000624639464EEB0E0E51EA020718BF46F0FB
:10182000010616EB0E7655F1000254F1000103D5C6
:10183000BDE88901BDE80088BDE88901BDE8004830
:10184000B619524141EB0101A3F1010370478080B9
:101850007F7E7D7C7B7A797877767675747372710A
:1018600071706F6E6E6D6C6C6B6A6A6968686766C2
:1018700066656464636362616160605F5F5E5E5D54
:101880005D5C5C5B5B5A5A595958585757565655C8
:1018900055555454535352525251515050504F4F2A
:1018A0004F4E4E4D4D4D4C4C4C4B4B4B4A4A4A497A
:1018B00049494848484747474746464645454544BD
:1018C0004444444343434342424242414141002B4A
:1018D0009C4630D477002BD01CB54FEA370703B4B1
:1018E0004FF010004FF01001BAF1000F06D0BCF11C
:1018F000000FDCBF40F0080040F008014FF000008E
:101900000FBCBDE810400BF1010BBBF1010F08BF8C
:101910005FEA170722BF12F1010211F101014FF036
:10192000004143F1000300F0004043EA000070472B
:10193000F9D35708D0E746EA064613F1400F4FEABD
:1019400016461FDD13F1200FDFBF16430A460021A4
:1019500020335B42BED0C3F1200746EA064602FAB6
:1019600007F74FEA164646EA0706C3F1200722FAB0
:1019700003F201FA07F721FA03F14FF0000342EAFC
:101980000702A7E746EA020646EA06464FEA164677
:1019900046EA0106BCBF46EA0646360C4FF0000395
:1019A0004FF000024FF0000194E72DE9804C9A4679
:1019B000934670B491E8380007C831EA400C48BF3C
:1019C00034EA430C03D5FFF7E6FDFFF780FFF0BCD8
:1019D000BDE8008C2DE9804C9A46934670B491E89E
:1019E000380007C810F0804F08BF13F0804F03D1B4
:1019F00000F005F8FFF76BFFF0BCBDE8008C20F0AD
:101A00007F4780EA030023F07F4C07EB0C03A3F52C
:101A10007C5300F00040A3F1FE0392F0000F00F0B1
:101A2000B38095F0000F00F077802DE901494FEA6F
:101A300011404FEA144621EA004800FB06FC24EA64
:101A4000064708FB06F607FB08F800FB07F718EB4C
:101A500006484CEB164C4FEA124B18EB07484FEA7E
:101A600015464CEB174022EA0B4E0BFB06FC25EA11
:101A700006470EFB06F607FB0EFE0BFB07F71EEBF9
:101A8000064E4CEB164C4FF000061EEB074E4CEB8F
:101A9000174B18EB0B0840F1000018EB0E0B58EB3E
:101AA000000840F100008F1A4FF000013CBFC9430D
:101AB000661B14BFB5EB040C00213CBFC943F61BE9
:101AC0004FEA17444EEA8E0E27EA04454FEA1C47B8
:101AD00004FB07622CEA074C05FB07F70CFB05F635
:101AE00004FB0CFC16EB074642EB174216EB0C46C8
:101AF00042EB1C421BEB060658EB0202414146EA50
:101B00009E0601D5BDE80189B619524141EB01019C
:101B1000A3F10103BDE801894FEA14454FEA1147DB
:101B200024EA054621EA074C05FB07F406FB07F704
:101B30000CFB06F105FB0CFC11EB074144EB1744D1
:101B40004FEA124711EB0C4144EB1C4422EA074CCC
:101B500005FB07F206FB07F70CFB06F605FB0CFC82
:101B600016EB074642EB174216EB0C4642EB1C45C0
:101B70006A1854F1000148BF7047B619524141EB51
:101B80000101A3F10103704795F0000F37D04FEA30
:101B900011424FEA144721EA024624EA074C02FBAD
:101BA00007F106FB07F70CFB06F402FB0CFC14EB39
:101BB000074441EB17414FEA154714EB0C4441EB46
:101BC0001C4125EA074C02FB07F506FB07F70CFB57
:101BD00006F602FB0CFC16EB074645EB174516EB29
:101BE0000C4645EB1C42121951F1000148BF7047E9
:101BF000B619524141EB0101A3F1010370474FEACD
:101C000014454FEA114724EA054621EA074C05FB33
:101C100007F106FB07F70CFB06F24FF0000605FB89
:101C20000CFC12EB074241EB174112EB0C4251EB5B
:101C30001C4148BF7047921841EB0101A3F1010319
:101C40007047000070B5044600688168C943C90741
:101C500017D1816821F00101816001F021F805466A
:101C60000AE000BF01F01CF8401B022804D92068DC
:101C70008068C043C00706D020688068C043C007A2
:101C8000F0D0002070BDA06A40F01000A062E06AB1
:101C900040F00100E062012070BD10B50146406ACD
:101CA000826A12F0500F05D0006A026BBDE8104046
:101CB00008461047816A41F40071816201688968B1
:101CC000C1F3424107290CD1017B51B9816A21F44A
:101CD00080718162816AC90403D4816A41F0010183
:101CE000816200F00DFB10BD10B5406A816A41F0C1
:101CF00040018162C16A41F00401C16200F002FB4F
:101D000010BD10B5406A00F0FCFA10BDF8B5002611
:101D10000446009600688168C943C9072DD08168D0
:101D200041F001018160164816490068B0FBF1F0EE
:101D300000E0401E00900028FBD100F0B1FF0546F6
:101D400016E000BF00F0ACFF401B022810D920684D
:101D50008068C043C0070BD0A06A40F01000A062AA
:101D6000E06A40F00100E06284F824600120F8BDE0
:101D700020688068C043C007E4D10020F8BD00009F
:101D8000BC00002040420F0070B5234C00201422FC
:101D9000608020802149224800F08EFB0120A51E92
:101DA0001E492870C0B2238831F820204FF4A57650
:101DB000724303EB123201EB800322805B8862885E
:101DC0007343401C02EB1332C0B2628028700828B3
:101DD000E8D92088C60826806088C008608004F0A2
:101DE00055FF104904F03CFE0F4C214604F096FFCD
:101DF000214605F090F8A860A6F1960004F02EFFA9
:101E00000A4904F02DFE214604F088FF214605F022
:101E100082F8E86070BD00001A000020E002002097
:101E2000FC0400200080BB430000C8420000344393
:101E3000FEE7000070B5002400F028F8124D04E021
:101E4000641CE4B2012003F0DDFD0221284600F00D
:101E50001DFF10B1642CF3D30FE0642C0DD20024CD
:101E600004E0641CE4B2012003F0CCFD022128460A
:101E700000F00CFF18B1642C04D3012070BD642C59
:101E8000EFD3FAE7002070BD000801401FB5022023
:101E90000090002001906946014800F0FBFD1FBD45
:101EA000000801401FB5022000900120019003208E
:101EB00003906946014800F0EDFD1FBD0008014098
:101EC00010B500F06BF8BDE81040FFF7B3BF00009D
:101ED00070B50024134D04E0641CE4B2012003F04B
:101EE00091FD0221284600F0D1FE08B1642CF3D305
:101EF000002404E0641CE4B2012003F083FD02210D
:101F0000284600F0C3FE08B9642CF3D3282003F060
:101F100079FD0221284600F0B9FE002800D00120FA
:101F200070BD00000008014070B500200446400666
:101F3000050EFFF7CDFF641C2843E4B2082CF6D34E
:101F400070BD2DE9FC410D46064600F027F8FFF76D
:101F500071FF10B10120BDE8FC8100246F46FFF73E
:101F6000E3FF3855641CE4B2052CF8D39DF800302B
:101F70009DF801209DF802109DF803009C180F1891
:101F80003C449DF80470BC4205D102EB03222A8038
:101F900000EB012030800020DDE7000010B5FFF7E6
:101FA00081FF094C00220221204600F074FE14201B
:101FB00000F05EFD01220221204600F06CFEBDE82B
:101FC00010401E2003F01EBD00080140014800F033
:101FD000B5BB00002C05002030B590F8405001241E
:101FE000AC40C56B6C60046863604368102B036889
:101FF00003D099600068C26030BD9A600068C1601B
:1020000030BD704710B518A21AA11CA002F0FEF94D
:10201000C82000F02DFD1FA002F0F8F9C82000F044
:1020200027FD20A002F0F2F94FF47A64204600F078
:102030001FFD264802F0EAF9204600F019FD244869
:1020400002F0E4F9204600F013FD224802F0DEF928
:10205000204600F00DFD204802F0D8F96010BDE8E0
:10206000104000F005BD00003132333435363738CA
:1020700039000000787866713100000041542B432C
:10208000574A41503D222573222C222573220D0AE6
:102090000000000041542B4349504D4F44453D3111
:1020A0000D0A000041542B434950534E54504346AF
:1020B000473D312C382C226E7470312E616C697959
:1020C000756E2E636F6D220D0A000000407A0008C5
:1020D000BC7A0008547D00080C7D00082DE9F0430F
:1020E00087B080461E460F461046DDF8389004F053
:1020F00017FC04460D46404604F012FC0B4602A9AC
:10210000009781E870020246024802F07FF907B0AA
:10211000BDE8F083147C000813460A4601460148D6
:1021200002F074B9247B000872B6FEE7F8B500250A
:102130000446009590F8240001280BD0012084F873
:1021400024002046FFF77EFD2046FFF7DFFD060056
:1021500002D050E00220F8BDA06A20F4885040F080
:102160000200A062022000F0F9FF25490968B1FBD6
:10217000F0F0400000E0401E00900028FBD12068F5
:10218000816841F00801816000F08AFD074608E09F
:1021900000F086FDC01B0A2803D92068806800076C
:1021A00015D4206880680007F2D42068816841F067
:1021B0000401816000F074FD074612E000F070FD3C
:1021C000C01B0A280DD920688068400709D5A06A7D
:1021D00020F0020040F01000A06284F8245001209A
:1021E000F8BD206880684007E8D4A06A20F00200AB
:1021F00040F00100A06284F824503046F8BD000091
:10220000BC000020F8B50024009490F82420254656
:10221000012A12D0012280F824204A681F23072AAD
:102220000DD20668776B521E02EB820293409F43E9
:102230000B6893401F43776319E00220F8BD0668DE
:102240000D2A0AD2376BD21F02EB820293409F43C2
:102250000B6893401F43376309E0F76A0D3A02EBBE
:10226000820293409F430B6893401F43F7620A68C2
:10227000072306680A2A0AD3F7680A3A02EB4202E1
:1022800093409F438B6893401F43F76008E0376992
:1022900002EB420293409F438B6893401F43376198
:1022A0000A68102A01D0112A20D1124B02689A42E2
:1022B00017D193681B0219D4936843F40003936009
:1022C0000968102912D10C490C4A0968B1FBF2F1D6
:1022D00001EB8101490000E0491E00910029FBD17A
:1022E00004E0816A41F020018162012480F82450D9
:1022F0002046F8BD00240140BC00002040420F00F1
:1023000070477047704700002DE9F04104004FF01E
:1023100000057FD0A06A002628B9E66284F8246010
:10232000204600F081F82046FFF78CFCA16AC90620
:1023300000D420B1A06A40F01000A0626AE0A16A57
:1023400021F4885141F00201A162334923688B4294
:10235000E16904D1B1F5402F01D14FF40021277B71
:102360004FF4807C41EA470261680A43A1686145F5
:1023700008D0012906D0002194F814E0BEF1010F25
:1023800002D00AE06146F7E7C7B1A76A47F0200725
:10239000A762E76A47F00107E7625F6827F46947C9
:1023A0000F435F60236899681C4F3940114399605F
:1023B000A16861450BD0012909D00CE0DFF860E08D
:1023C000A7690EEB47370F4347F40061E5E7218A21
:1023D0000D05A5F580152168CB6A23F470032B4306
:1023E000CB62216889680F4B1940914208D1E6629F
:1023F000A16A21F0020141F00101A162BDE8F08172
:10240000A06A20F0020040F01000A062E06A40F0F4
:102410000100E0620120F1E7003C0140FDF7E1FF2F
:1024200000E0FFFFFE0E1FFF70B586B000250646D8
:10243000009501950295039500681A4988422ED1AE
:102440001949886940F400708861886900F4007057
:102450000490886940F0040088618869694600F04A
:10246000040004900C200090032001900F4800F01D
:1024700011FB104C0E48C4E900058020C4E902504D
:1024800040002061800060612020C4E906052046EC
:1024900000F078FA08B1FFF747FE3462666206B0D2
:1024A00070BD0000002401400010024000080140FF
:1024B000080002402C0500202DE9F047894604461B
:1024C0003B4900683B4F0E1D9046884201D0B84200
:1024D00007D1306810F4702F03D001252846BDE8DD
:1024E000F08794F8240001280CD0012084F82400FF
:1024F0002046FFF70BFC05004FF0000004D084F8E5
:102500002400EBE70220EAE7A16A40F6016291436A
:1025100041F48071A1622168B94218D1326812F485
:10252000702F14D0A16A41F48011A162316849056D
:1025300005D5A16A21F4005141F48051A162A16A3C
:10254000C9040AD5E16A21F00601E16206E0A26A47
:1025500022F48012A2624968E9E7E06284F824006C
:10256000216A15488862216A1448C862216A1448A1
:10257000086321686FF0020008602068816841F4F8
:1025800080718160216843464A464C31206A00F0E0
:1025900037FA20688168C1F342410729816803D076
:1025A00041F48011816099E741F4A001FAE700004D
:1025B00000240140002801409B1C0008031D000866
:1025C000E91C000810B590F821100022022905D05E
:1025D0000421816380F82020012010BD01680B6870
:1025E00023F00E030B6001680B6823F001030B60FE
:1025F00090F84030C46B012101FA03F3636080F866
:10260000211080F82020104610BD00002DE9F05F59
:1026100090F821100024022903D0042181630124B1
:1026200085E001680A6822F00E020A6001680A6803
:1026300022F001020A603F4E3E4FB215DFF8F4C0AF
:10264000DFF8F090DFF8ECA0DFF8E8B0DFF8E4E0C6
:102650000168783F13011502ACF1640CA9F150092F
:10266000AAF13C0AABF1280BAEF1140E4FF480181E
:10267000B14227D9B9420ED0614512D049451DD08B
:10268000514518D0594518D0714501D1424615E041
:10269000294EB14201D1012210E0274E1436B14239
:1026A00001D110220AE0244E2836B14206D0224A37
:1026B0003C32914201D11A4600E02A461E49091FC8
:1026C0000A602BE0B94213D0614517D0494522D0AA
:1026D00051451DD059451DD0714501D142461AE0E2
:1026E000B14202D14FF0807215E0134EB14201D1D8
:1026F000012210E0104E1436B14201D110220AE03E
:102700000D4E2836B14206D00B4A3C32914201D1DF
:102710001A4600E02A46074980394A60012180F8BC
:102720002110002180F82010416B01B1884720461C
:10273000BDE8F09F80000240080402402DE9F05FF0
:10274000C16B0A6801680B68046C4FF0040808FA52
:1027500004F8844D844E854FDFF814C2DFF81492DC
:10276000DFF814A2DFF814B2DFF814E218EA020F5F
:1027700065D05FEA437862D50A68920603D40A6896
:1027800022F004020A60DFF8F0814FF480620168F1
:1027900008F1140813011402414524D9A9420DD0AF
:1027A000B1420FD0B9421AD0614515D0494515D074
:1027B000514501D1120312E0594501D104220EE026
:1027C000714501D140220AE06D4D1435A94206D071
:1027D0006B4A2832914201D11A4600E022466749ED
:1027E000091F0A6029E0A94213D0B14215D0B942AD
:1027F00020D061451BD049451BD0514502D14FF433
:10280000800217E0414502D14FF0806212E0594545
:1028100001D104220EE0714501D140220AE0584D59
:102820001435A94206D0564A2832914201D11A469F
:1028300000E022464B4908394A60C16A71E04FF016
:10284000020808FA04F818EA020F70D05FEA8378E9
:102850006DD50A68920606D40A6822F00A020A6058
:10286000012180F82110DFF810814FF40072016817
:1028700008F1140813011402414524D9A9420DD0CE
:10288000B1420FD0B9421AD0614515D0494515D093
:10289000514501D1120312E0594501D102220EE047
:1028A000714501D120220AE0354D1435A94206D0E8
:1028B000334A2832914201D11A4600E022462F497C
:1028C000091F0A6029E0A94213D0B14215D0B942CC
:1028D00020D061451BD049451BD0514502D14FF452
:1028E000001217E0414502D14FF0007212E0594545
:1028F00001D102220EE0714501D120220AE0204DD3
:102900001435A94206D01E4A2832914201D11A46F6
:1029100000E02246134908394A60002180F820105F
:10292000816A00291CD0BDE8F05F0847FFE7082551
:10293000A540154214D01A0712D50A6822F00E02DB
:102940000A6090F84020C36B012101FA02F25A603C
:10295000816380F82110002180F82010016BE0E7EE
:10296000BDE8F09F080002401C0002403000024019
:1029700044000240580002406C000240080402403B
:102980001C04024030B560B11A4B026814219A420F
:1029900009D2194B1344B3FBF1F1890001641749C3
:1029A0000AE0012030BD134B5B421344B3FBF1F14D
:1029B000890001640F490839C163022180F82110A0
:1029C000136843F6F0718B43F0E901142143D0E919
:1029D00002452C432143046921434469214384690E
:1029E000214319431160002141630122427701779D
:1029F000084630BD08040240F8FFFDBF0000024059
:102A000070B5044690F82000002501280CD0012064
:102A100084F8200094F821600020012E06D084F86C
:102A200020000225284670BD022070BD022684F8D1
:102A30002160A0632068066826F001060660204633
:102A4000FFF7CAFAE06A00282068016802D041F066
:102A50000E0106E021F0040101602068016841F0E8
:102A60000A0101602068016841F001010160D9E7B5
:102A700070B5044600F014F90546601C02D0044805
:102A80000078044400F00CF9401BA042FAD370BD5A
:102A9000B00000202DE9F84FDFF8C8910024A9F11B
:102AA000040B23460F2709F1040AABF1040ED1E011
:102AB0000125A54006EA0502AA4276D1DFF8A8C1A1
:102AC0004E68A6EB0C0866452BD00DDC032E34D0E7
:102AD00005DC36B3012E19D0022E2FD11BE0112EAA
:102AE00016D0122E2AD119E0B8F5881F19D006DCAD
:102AF000B8F5803F15D0B8F5801F1FD111E0B8F5AB
:102B0000001F0ED0B8F5041F18D10AE0CB6815E0FD
:102B1000CB681B1D12E0CB6808330FE0CB680C3389
:102B20000CE08B682BB1012B4FF0080303D04561FB
:102B300004E0042302E0056100E00023FF2A01D83D
:102B4000064601E000F104064FEA840501D9A5F12B
:102B50002005D6F8008007FA05FC28EA0C0803FADD
:102B600005F548EA0508C6F800804D68ED0070D507
:102B70003E4DAE6946F00106AE61AD6924F0030634
:102B800005F0010500953A4D06EB050CDCF8085000
:102B9000A607360F07FA06F825EA0805DFF8D480FD
:102BA000404503D14FF0000825E052E0DFF8C8802F
:102BB000404502D14FF001081DE0DFF8C0804045DC
:102BC00002D14FF0020816E0DFF8B480404502D190
:102BD0004FF003080FE0DFF8AC80404502D14FF022
:102BE000040808E0DFF8A080404502D14FF0050856
:102BF00001E04FF0060808FA06F848EA0508CCF8A4
:102C000008804D68D9F80060ED024D4601D51643A5
:102C100000E096432E604D68DAF80060AD0255463C
:102C200001D5164300E096432E604D68DBF8006046
:102C3000AD035D4601D5164300E096432E604D6816
:102C4000DEF80060ED03754601D5164300E09643BB
:102C50002E60641C0A681646E2407FF429AFBDE886
:102C6000F88F00000804014000001110001002401D
:102C70000000014000080140000C0140001001402C
:102C80000014014000180140001C01408068084009
:102C900000D0012070470AB1016170470904FBE7C9
:102CA0000148806870470000B000002070B5040043
:102CB00025D094F83D00002520B984F83C502046EA
:102CC00000F050F9242084F83D002068016821F0CC
:102CD000010101602068016841F400410160206841
:102CE000016821F40041016000F0A6FB4D4A6168D3
:102CF000914201D84C4900E04C49884201D2012060
:102D000070BD4B492368B0FBF1F15E6826F03F06C9
:102D10000E435E606368934206D94FF4967359433D
:102D20004FF47A73B1FBF3F12368491C1E6A26F055
:102D30003F06314319626168914210D84900401E34
:102D4000B0FBF1F2521CC2F30B02042A01D20420A0
:102D500022E0B0FBF1F0401CC0F30B001CE0A268C5
:102D6000F2B301EBC10303EB0116431EB3FBF6F311
:102D70005B1C43F480431B0549D092B301EBC102B5
:102D800002EB0111401EB0FBF1F0401CC0F30B0040
:102D900040F4804040F400402168CA694CF6FF735B
:102DA0009A431043C861D4E90710014320680268C0
:102DB00022F0C00211430160D4E9030101432068FD
:102DC000826848F2FF339A4311438160D4E90501D8
:102DD00008432168CA6822F0FF021043C86001E07E
:102DE0000EE016E02068016841F0010101602564F1
:102DF000202084F83D00256384F83E50002070BDFB
:102E000001EB4106431EB3FBF6F35B1CB3E7012065
:102E1000C2E701EB4101401EB0FBF1F0401CC0F3E2
:102E20000B00B7E7A086010080841E0000093D006A
:102E300040420F002DE9FF4F83B09A46DDE911971C
:102E400093460446DDF84080FFF72AFF054694F8D4
:102E50003D0020287FD119230122404920460095BA
:102E600001F086FB002876D194F83C00012872D04E
:102E7000012084F83C0020680168C90703D101687B
:102E800041F0010101602068016821F400610160E6
:102E9000212084F83D00402084F83E00002626646E
:102EA000C4F82480A4F82A90608D20852C48E06224
:102EB000CDE9007553465A462046049901F0D8FAE8
:102EC00070B930E02A463946204601F0F7FB58B188
:102ED000206C042804D12068016841F4007101606D
:102EE000012007B0BDE8F08F606A216800780861B2
:102EF000606A401C6062218D491E89B22185628D05
:102F0000521E628522685369DB435B070BD469B1AB
:102F100000781061606A401C6062208D401E208530
:102F2000608D401E6085208D0028CBD12A46394611
:102F3000204601F0F1FA0028CAD154F83D0B01688F
:102F400041F400710160202004F81E09E6776677DD
:102F50000020C6E7FFE70220C3E7000002001000E0
:102F60000000FFFF30B585B0002100910191029172
:102F700003911E4D03681E4C122103221D48AB42D3
:102F800016D1A36943F00803A361A369039203F078
:102F900008030493C023CDE900316946FFF77AFDA9
:102FA000E06940F40010E061E06900F4001019E00D
:102FB000114DAB4217D1A36943F00803A361A36984
:102FC000039203F0080304934FF44063CDE900310A
:102FD0006946FFF75FFDE06940F48000E061E06969
:102FE00000F48000049005B030BD000000540040A3
:102FF00000100240000C0140005800400248816867
:103000000278114481607047B0000020074810B575
:10301000016841F010010160032000F075F80F20F5
:1030200000F006F800F024F8002010BD0020024057
:1030300070B50D4D04464FF47A712878B1FBF0F06D
:103040000A490968B1FBF0F000F031FD48B9102CD5
:1030500007D200222146501E00F036F800206C6096
:1030600070BD012070BD0000B0000020BC00002039
:103070000C4808B5816941F001018161816901F065
:1030800001010091C16941F08051C161C06900F046
:10309000805000900448416821F0E06141F00071E7
:1030A000416008BD0010024000000140002809DB1B
:1030B00000F01F02012191404009800000F1E02052
:1030C000C0F8001170470000F0B40E4B1B680C46AE
:1030D000C3F30223C3F10705042D00D90425191DEC
:1030E000072901D2002300E0DB1E012606FA05F1C4
:1030F000491E214099409E40761E16403143F0BC47
:1031000002F0C9BB0CED00E0064900F007020868B8
:103110004FF6FF03184040EA0220034A10430860BC
:10312000704700000CED00E00000FA05BFF34F8F80
:1031300005480168054A01F4E06111430160BFF3ED
:103140004F8F00BFFDE700000CED00E00400FA0522
:10315000014901200862704700000E4210B5014687
:103160000020284C04292FD00BDC012930D0022963
:1031700029D100F071F96168C1F38131491C49001E
:103180001FE0082920D010291DD161682268D201D2
:1031900019D51D48C1F38342C903805C0AD5616813
:1031A000194AC1F34041921E515C184AB2FBF1F139
:1031B000484301E0164948436168490203D440008E
:1031C0000321B0FBF1F010BDBDE8104000F054B990
:1031D000226AC2F30121012903D1920701D5C80354
:1031E00010BD022905D1626A920702D549F6404016
:1031F00010BD0329FCD121688903F9D54FF2244081
:1032000010BD0000001002401A79000800127A0078
:1032100000093D002DE9F84305460078354CC0070C
:1032200054D0E0690026C00008D4E06940F0805026
:10323000E061E069012600F0805000902E480168AE
:10324000C90512D40168804641F480710160FFF71E
:1032500027FD074605E000BFFFF722FDC01B6428DD
:1032600023D8D8F80000C005F6D5206A10F44070C5
:1032700021D0A98801F4407181421CD0206A1F49E5
:10328000012220F440700A6000220A602062C00718
:1032900011D0FFF705FD074641F2883808E000BF6E
:1032A000FFF7FEFCC11B414502D90320BDE8F883AE
:1032B000206A8007F4D5206A696820F440700843CA
:1032C00020621EB1E06920F08050E061287880071C
:1032D00005D56068A96820F44040084360602878FC
:1032E000C00605D56068696920F480000843606005
:1032F0000020DBE700100240007000404004424222
:103300002DE9F0470F46050061D0434E306800F0CC
:103310000700B84209D2306820F007003843306017
:10332000306800F00700B84251D128683B4C810753
:1033300012D5400703D5606840F4E06060602878EB
:10334000000703D5606840F4605060606068A96859
:1033500020F0F000084360602878C00728D0686833
:10336000012810D02168022810D0890700292EDA00
:10337000616821F0030101436160FFF791FC804621
:1033800041F288390DE021688903EFE78901EDE713
:10339000FFF786FCA0EB0801494502D90320BDE8F0
:1033A000F0876068696800F00C00B0EB810FEFD126
:1033B000306800F00700B8420BD9306820F00700F1
:1033C00038433060306800F00700B84201D0012077
:1033D000E5E72878400705D56068E96820F4E060F3
:1033E000084360602878000706D56068296920F4E2
:1033F000605040EAC100606000F03EF86168084A31
:10340000C1F30311515CC8400649086006480068D2
:10341000FFF70EFE0020C2E700200240001002402D
:103420002A790008BC000020B40000200148006890
:1034300070470000BC000020044805490068496846
:10344000044AC1F30221515CC8407047BC0000200F
:10345000001002403A7900080448054900684968AC
:10346000044AC1F3C221515CC8407047BC0000202F
:10347000001002403A7900080E4A51680E4801F0E7
:103480000C03042B11D0082B0FD10C48C1F383433C
:10349000C903C05C0AD55168084AC1F34041921E75
:1034A000515C054A5043B0FBF1F070470449484372
:1034B000704700000010024000127A0008790008EE
:1034C00000093D002DE9F84F040070D02078C04D70
:1034D000C00749D06868C0F38100012807D0686838
:1034E000C0F38100022809D16868C00306D52868A6
:1034F000800339D560680028E7D035E06068B0F512
:10350000803F0BD010B1B0F5A02F11D0286820F467
:1035100080302860286820F4802002E0286840F489
:1035200080302860606890B1FFF7BAFB06460AE079
:10353000286840F480202860F0E700BFFFF7B0FB68
:10354000801B642873D828688003F7D50CE0FFF748
:10355000A7FB064605E000BFFFF7A2FB801B64281F
:10356000F0D828688003F7D420789A4E80074FF06F
:1035700001094FF0000839D5686810F00C0F07D02A
:103580006868C0F38100022809D16868C00306D4C6
:103590002868800714D52069012808D110E0206927
:1035A000B0B1C6F80090FFF77BFB074605E00AE1E3
:1035B000FFF776FBC01B0228C4D828688007F7D520
:1035C0002868616920F0F80040EAC10028600DE039
:1035D000C6F80080FFF764FB074604E0FFF760FBD6
:1035E000C01B022823D828688007F7D4207800075A
:1035F0002CD57948A169D9B1C0F80090FFF750FBEC
:10360000074604E0FFF74CFBC01B02280FD8686A8E
:103610008007F7D571484FF4FA510068B0FBF1F01C
:10362000009000BF0098411E0091FAD20EE080E0A9
:10363000C0F80080FFF734FB074604E0FFF730FBDB
:10364000C01B022875D8686A8007F7D42078400725
:1036500060D5E8690027C00008D4E86940F08050D0
:10366000E861E869012700F0805000905C4801683B
:10367000C90513D40168834641F480710160FFF7E6
:103680000FFB824606E000BFFFF70AFBA0EB0A0033
:1036900064284ED8DBF80000C005F5D5E0680128A5
:1036A0000AD008B1052813D0286A20F0010028624A
:1036B000286A20F0040002E0286A40F00100286235
:1036C000E06841F2883B98B1FFF7EAFA82460BE0E6
:1036D000286A40F004002862EEE700BFFFF7E0FA36
:1036E000A0EB0A0159455AD8286A8007F6D50CE0A4
:1036F000FFF7D6FA824605E0FFF7D2FAA0EB0A01FF
:1037000059454CD8286A8007F6D41FB1E86920F0E3
:103710008050E861E06988B36968C1F381010229DA
:1037200044D00228C6F8608004D0FFF7B9FA0446F6
:1037300038E034E0FFF7B4FA074604E0FFF7B0FAE8
:10374000C01B02282BD828688001F7D4206AB0F566
:10375000803F05D16868A16820F4003008436860A4
:10376000D4E908010843696821F4741108436860CA
:10377000C6F86090FFF794FA044606E025E000BF23
:10378000FFF78EFA001B022809D828688001F7D5B8
:103790001BE000BFFFF784FA001B022802D90320B8
:1037A000BDE8F88F28688001F4D40EE00128F7D036
:1037B0006868226A00F48031914204D1616A00F4A1
:1037C0007010884201D00120EAE70020E8E70000FD
:1037D000001002400000424280044242BC0000202F
:1037E000007000407047704710B5044600680168DB
:1037F000C90717D04168C90714D040684007204660
:1038000007D5FFF7F0FF21686FF00400486004203F
:1038100002E0FFF7E7FF012060742068416821F0B3
:103820000101416010BD000070B5040003D0607C50
:10383000002610B105E0012070BD2674204600F07E
:103840003DF802206074204600F014F9042550BBB6
:10385000204601F059FD30BB2068416821F0070186
:103860004160A06820B11448016821F001010160A5
:103870001148001F0168A26821F4607111430160C2
:103880006068411C04D10120FFF768FC58B1401E5C
:103890002268C0F303419160216880B2C86020466D
:1038A00001F04CFD08B16574C5E7E6730120607353
:1038B000A0736074002070BD306C004008B50068D3
:1038C0000D49884217D1FFF743FC0C48C16941F00C
:1038D0000061C161C0690A4900F0006000900120E8
:1038E0000860002211460320FFF7EEFBBDE8084008
:1038F0000320FFF7DBBB08BD00280040001002409A
:103900003C0442422DE9F0410D4604003BD0C5B3D2
:10391000207C01283AD04FF0010884F81080022062
:103920006074E87872B301F0E6FCE073687801F047
:10393000E2FC6073A87801F0DEFCA073C2B2617B88
:10394000E07B01F034FD20732870204601F01FFD5C
:103950004FF46161B0FBF1F1002518292DD918222F
:10396000B1FBF2F1A1EB011101EB4101C1EB01113E
:1039700000EBC1163146204601F058FD0427C8B9B6
:103980000BE000E004E00120BDE8F0810220FBE74D
:10399000E07368786073A878CFE7204601F0F0FC08
:1039A000411C0AD0B04208D206490144204601F029
:1039B00029FD10B167742574E5E784F8118025743A
:1039C0000020E1E7805101002DE9F0410D4604009F
:1039D00024D01DB3207C012823D04FF0010884F8A7
:1039E0001080022060742878EAB101F084FC4FF462
:1039F000616100FB01F6687801F07DFCC0EB00100E
:103A000006EB8006A87801F076FC3518294620469A
:103A100001F00CFD0026042710BB0FE00120BDE8DB
:103A2000F0810220FBE74FF4616148436978C1EB04
:103A3000011100EB8100A9784518E7E7206841688B
:103A400021F005014160204601F09AFC411C0AD09A
:103A5000A84208D206490144204601F0D3FC10B127
:103A600067742674DAE784F8118026740020D6E79C
:103A70008051010070B504000AD02068416821F02F
:103A800008014160FFF70CF905464FF47A7608E02B
:103A9000012070BDFFF704F9401BB04201D903209B
:103AA00070BD206840680007F4D5002070BD10B5D7
:103AB000401EB0F1807F01D3012010BD4FF0E02403
:103AC00060610F21601701F0E6FE0020A061072071
:103AD0002061002010BD70477047000070B590F85D
:103AE0003C20012A2CD0012480F83C40022280F89E
:103AF0003D2003685A689D6822F070060A683243C8
:103B00005A60104B02689A420ED00F4B9A420BD06B
:103B1000B2F1804F08D00D4B9A4205D00C4B9A421F
:103B200002D00C4B9A4204D1496825F08003194316
:103B3000916080F83D40002180F83C10084670BD3F
:103B4000022070BD002C0140003401400004004000
:103B500000080040000C004010B5040003D094F8A9
:103B60003D0010B107E0012010BD002084F83C00AA
:103B7000204600F01FF8022084F83D00211D206837
:103B800001F0D6FC012084F8460084F83E0084F859
:103B90003F0084F8400084F8410084F8420084F833
:103BA000430084F8440084F8450084F83D00002078
:103BB00010BD000008B501681048B1F1804F14D065
:103BC0000F4A914219D1C16941F00201C161C06936
:103BD000002200F00200009011461D20FFF774FA49
:103BE000BDE808401D20FFF761BAC16941F001013D
:103BF000C161C06900F00100009008BD00100240E2
:103C00000004004090F83D10012901D001207047C8
:103C1000022180F83D1000680E4988420ED00E49FE
:103C200088420BD0B0F1804F08D00C49884205D0B3
:103C30000B49884202D00B49884204D1816801F0C7
:103C40000701062903D0016841F00101016000204D
:103C500070470000002C0140003401400004004087
:103C600000080040000C004090F83D10012901D0F0
:103C700001207047022180F83D100168CA6842F0B7
:103C80000102CA6000680E4988420ED00D49884280
:103C90000BD0B0F1804F08D00B49884205D00B49BA
:103CA000884202D00A49884204D1816801F00701A4
:103CB000062903D0016841F001010160002070472E
:103CC000002C014000340140000400400008004086
:103CD000000C004001680A6A41F211131A4207D130
:103CE0000A6A9B101A4203D10A6822F001020A6094
:103CF000012180F83D100020704770B5044690F80F
:103D00003C000025012817D0012684F83C600220E1
:103D100084F83D002068826822F0770222F47F4216
:103D200082600868502838D00DDC20284FD005DC90
:103D300090B3102811D14AE0022070BD302846D03F
:103D400040280AD13BE060282FD070280DD0B0F574
:103D5000805F03D0B0F5005F12D0012584F83D608C
:103D6000002084F83C00284670BDCB68D1E90121D1
:103D7000206801F02BFC2068816841F0770109E0A0
:103D8000CB68D1E90121206801F020FC206881681E
:103D900041F480418160E1E719E0CA684968206820
:103DA00001F026FC5021206806E0CA6849682068B6
:103DB00001F02FFC6021206801F012FCCEE7CA68F8
:103DC0004968206801F014FC40212068F4E722686B
:103DD00001461046F0E770472DE9F04104460068BF
:103DE000C66805694FF00007A90713D5B10711D5BB
:103DF000F91E016101202077206880698007204634
:103E000002D0FFF7E8FF04E000F07EF8204600F063
:103E10007CF82777680716D5700714D521686FF0EE
:103E200004000861022020772068806910F4407F38
:103E3000204602D0FFF7CFFF04E000F065F82046EF
:103E400000F063F82777280715D5300713D52168C8
:103E50006FF008000861042020772068C06980079F
:103E6000204602D0FFF7B7FF04E000F04DF82046EF
:103E700000F04BF82777E80616D5F00614D5216830
:103E80006FF010000861082020772068C06910F4E6
:103E9000407F204602D0FFF79EFF04E000F034F898
:103EA000204600F032F82777E80708D0F00706D060
:103EB00021686FF001000861204600F027F828060D
:103EC00008D5300606D521686FF0800008612046CD
:103ED000FFF701FE680608D5700606D521686FF069
:103EE00040000861204600F029F8A8060AD5B0066F
:103EF00008D521686FF0200008612046BDE8F04138
:103F0000FFF7EABDBDE8F081704770470949884274
:103F10000AD10948817A491CC9B28172322904D96F
:103F20000121C1720021817270471E29FCD102213A
:103F3000C17270477406002030000020704770473F
:103F400070470000F8B5016804460868CA684B6904
:103F500010F00F0F4FF0000559D003F0010602F4E6
:103F60009077374365D0C10705D0D10503D5616C83
:103F700041F001016164410705D5D90703D0616CA7
:103F800041F002016164810705D5D90703D0616C56
:103F900041F004016164010707D502F020013143BB
:103FA00003D0616C41F008016164616C00293AD072
:103FB000800604D5900602D5204601F06BFB2068F0
:103FC0004069616CC0F38010090700D460B32046DB
:103FD00001F039FB20684069400621D52068143083
:103FE00050E8001F21F0400140E80012002AF5D1FE
:103FF000E06BA8B16D494163E06BFEF707FB002859
:1040000011D0E06B416B01B0BDE8F040084783067A
:104010000FD593060DD52046BDE8F84001F03ABB18
:104020002046FFF78DFFF8BD2046FFF789FF656446
:10403000F8BD266B2023012E7CD1C6067AD5D60684
:1040400078D508684868009048694FF00206400635
:1040500040D5E16B086840680004000CE8D0A28DF0
:104060008242E5D9E085886920282DD020680C306F
:1040700050E8001F21F4807140E80012002AF5D1B9
:104080002068143050E8001F21F0010140E80012C0
:10409000002AF5D12068143050E8001F21F04001BB
:1040A00040E80012002AF5D184F8423025632068E8
:1040B0000C3050E8001F21F0100140E80012002AE7
:1040C000F5D1E06BFEF77EFA6663A08DE18D401AB4
:1040D00081B22AE0A08DE18D401A81B2E08D0028E6
:1040E000A6D00029A4D022680C3252E8000F20F498
:1040F000907042E80007002FF5D12068143050E896
:10410000002F22F0010240E80027002FF5D184F8AB
:104110004230256320680C3050E8002F22F0100256
:1041200040E80023002BF5D166632046FFF707FF28
:10413000F8BDFFE705062BD5150629D594F84100F3
:104140002128F5D1A068B0F5805F01D12069B0B118
:10415000206A411C2162216800784860E08C401E82
:104160000004000CE084E3D12068C16821F08001E4
:10417000C1602068C16841F04001C160D8E7206A91
:104180000088C0F308004860206A801C2062E5E7D0
:104190004006CDD55006CBD5CA68204622F0400255
:1041A000CA6084F8413000F049F9C1E73756000889
:1041B00070B5040004D094F84100002510B106E069
:1041C000012070BD84F84050204600F023F82420E0
:1041D00084F841002068C16821F40051C160204684
:1041E00001F0BAFA2068016921F490410161206868
:1041F000416921F02A0141612068C16841F4005100
:10420000C1606564202084F8410084F84200656341
:10421000002070BDF0B585B0002400940194029494
:10422000039403684C484B4D471502210322AB42CF
:1042300026D1836943F480438361836903F4804317
:104240000493836943F0040383618069CDE90071BD
:1042500000F00400CDE90320404D69462846FEF7F2
:1042600019FC2815CDE90004694628460294FEF79A
:1042700011FC002201212520FEF726FF252031E038
:10428000DFF8DCC0374E384D63452FD1C36943F4A6
:104290000033C361C36903F400330493836943F0BB
:1042A000200383618069039200F0200004902020A5
:1042B000CDE9000169463046FEF7ECFB4020CDE930
:1042C0000004694630460294FEF7E4FB686840F05B
:1042D000E06040F008006860002211462620FEF7EA
:1042E000F3FE2620FEF7E2FE05B0F0BDDFF87CC04D
:1042F0006345F9D1C36943F48023C361C36903F4FF
:1043000080230493836943F02003836180690392CF
:1043100000F0200004904FF48070CDE90001694660
:104320003046FEF7B7FBCDE900746946304602948B
:10433000FEF7B0FB686820F0300040F0E06040F02D
:1043400030006860002201212720FEF7BDFE2720F3
:10435000C8E700000038014000100240000801409A
:1043600000440040001401400000014000480040AB
:1043700090F84230202B01D00220704721B11AB1B1
:104380000023036301F044BA0120704710B50446CE
:1043900000680B49884204D182150A490A48FFF790
:1043A000E7FF0A492068884209D1094801F06AFDFF
:1043B000BDE81040032206490648FFF7D9BF10BDEB
:1043C000004400408C030020040700200048004007
:1043D000640000204C07002090F84130202B01D0D1
:1043E0000220704779B172B101628284C2840021D7
:1043F0004164212180F841100068C16841F08001CA
:10440000C160002070470120704700000FB44FF4D6
:10441000007110B503AB0748029AFBF74DFF002867
:1044200004DD82B203490448FFF7D6FF10BC5DF8F3
:1044300014FB0000C0000020040700207047FEE7C6
:1044400001684A69D24352050FD46FF480624A6111
:10445000002140F8301F202242738173026942F02C
:1044600004020261017301207047002070470000C0
:104470002DE9F843044600680D46DDE90897016818
:104480009846164641F4807101604B4600224FF079
:1044900001112046009700F06BF848B120680068D1
:1044A000C00502D54FF4007020640320BDE8F883F6
:1044B000216805F0FE0008613B464A461549204642
:1044C00000F09EF888B920684169806900903A46FA
:1044D0004946204600F0F2F848B1206C042804D187
:1044E0002068016841F4007101600120DEE7F5B247
:1044F000B8F1010F09D02168300A08613A464946EF
:10450000204600F0DBF80028E7D120680561002094
:10451000CCE700000200010070B516460D460446C7
:104520001EE02046FFF78CFF08B1012070BD681C1B
:1045300016D0FEF7B5FB801BA84200D885B92068CD
:104540004069C04340070BD5002044F8300F2021BC
:104550006173A073216941F0200121612073E4E7B8
:1045600020684069C0434007DBD4002070BD0000D4
:104570002DE9F047984617460D460446C1F3074615
:10458000DDF820902AE000BFB8F1FF3F26D0FEF70B
:1045900087FBA0EB0901414502D8B8F1000F1DD1FE
:1045A0002068012E16D0806925EA00000004000C66
:1045B00012D00020B84211D1002044F8300F202141
:1045C0006173A073216941F02001216120730120F2
:1045D000BDE8F0874069E7E70120EBE72068012E9E
:1045E0000AD0806925EA00000004000C06D00020F3
:1045F000B842C9D00020EBE74069F3E70120F7E7B4
:104600002DE9F047984616460D4604464FF000093E
:104610004FF0200AC1F3074723E020684069C043F8
:10462000400515D42068016841F4007101602168DB
:104630006FF480604861C4F8309084F83DA084F83D
:104640003E90216C41F00401216484F83C9021E00B
:10465000701C06D0FEF724FBA0EB0800B04203D884
:1046600016B1012F1FD021E02068012F15D08069DD
:1046700025EA00000004000C18D000BF44F8309F69
:1046800084F80DA084F80E90216941F02001216189
:1046900084F80C900120BDE8F087406925EA00000D
:1046A0000004000CEAD12068406901E020688069BC
:1046B00025EA00000004000CAFD1ECE770B5164607
:1046C0000D4604461EE02046FFF7BAFE08B1012061
:1046D00070BD681C16D0FEF7E3FA801BA84200D814
:1046E00085B920684069C04300060BD5002044F816
:1046F000300F20216173A073216941F020012161F5
:104700002073E4E720684069C0430006DBD4002042
:1047100070BD00002DE9F0478046002400F09AFEAD
:10472000264E00254FF480674FF400690022394679
:104730003046FEF7B0FA022001F0CEFA01223946E7
:104740003046FEF7A8FA6006040E49463046FEF7EA
:104750009DFA012801D1641CE4B2012001F0BCFAE9
:104760006D1CEDB2082DE1D3B8F1000F4FF000023F
:10477000394630461BD0FEF78EFA00F07BFE002251
:1047800049463046FEF787FA022001F0A5FA0122D9
:1047900039463046FEF77FFA052001F09DFA0022E7
:1047A00039463046FEF777FA2046BDE8F087FEF737
:1047B00072FA00F05FFE0122E2E70000000C014007
:1047C0002DE9F041054600F055FE174F4FF4806685
:1047D000002231463846FEF75EFA00244FF40068A6
:1047E000280601D5012200E0002241463846FEF7A6
:1047F00052FA6806050E022001F06EFA01223146D7
:104800003846FEF748FA022001F066FA00223146E7
:104810003846FEF740FA022001F05EFA641CE4B26A
:10482000082CDDD3BDE8F081000C014070B500F02C
:1048300021FE01220E4DD40221462846FEF72BFA16
:104840000122960231462846FEF725FA052001F09E
:1048500043FA002221462846FEF71DFA062001F001
:104860003BFA31462846BDE870400022FEF713BAF5
:10487000000C014070B500F0FDFD104D4FF4806458
:10488000002221462846FEF706FA6600002231463D
:104890002846FEF700FA012221462846FEF7FBF9DA
:1048A000062001F019FA012231462846FEF7F3F9F5
:1048B000BDE87040062001F00FBA0000000C014076
:1048C0002DE9F0410122164DD6020024314628463A
:1048D000FEF7E1F9012001F0FFF900F0BBFD012234
:1048E000970239462846FEF7D6F9012001F0F4F97F
:1048F00008E0641CE4B2FA2C04D9FFF7BBFF0120E6
:10490000BDE8F08131462846FEF7C0F90128F0D015
:10491000002239462846FEF7BEF90020F0E70000E5
:10492000000C01402DE9F8432C4D2F8BF8B202F01A
:10493000ADF96FF00706314602F0A3FB0446380AD2
:1049400002F0A4F9214602F017F8DFF89480DFF8AE
:10495000949003464FF07E544246494622480094C4
:1049600000F0CCF86F8BF8B202F090F9314602F00B
:1049700088FB0646380A02F089F9314601F0FCFF4F
:1049800003461948424649461430009400F0B6F8F0
:10499000164800944246036813484946283000F000
:1049A000ADF8134800944FF0814203680E48494621
:1049B000503000F0A3F8E88AB0F5C87F01D20D4866
:1049C00001E002F063F903460B49074800910B4AE6
:1049D0000B493C3000F092F8BDE8F883300000202D
:1049E0006666A63FCDCCCC3D980400202400002074
:1049F000200000200000C84300401C4600401C4529
:104A0000000020412DE9F041354C268BF0B202F038
:104A10003DF96FF00707394602F033FB0546300ACF
:104A200002F034F9294601F0A7FF01462D4800F0B5
:104A30006CF8A063658BE8B202F028F9394602F001
:104A400020FB0646280A02F021F9314601F094FFC6
:104A500001462448143000F058F8E0632248016809
:104A60002048283000F051F82064204801681D4893
:104A7000503000F04AF86064E78AB7F5F07F2AD931
:104A8000184E01203C36E073B5681949284602F0FB
:104A900045F9294602F042F9164901F06DFF7060B0
:104AA000384602F0F3F807462846216A02F03EFA3B
:104AB00020F00040012102F0E4FA0F4901F05CFF10
:104AC000306039463046256200F01FF802F0A6F843
:104AD000A083BDE8F081E07B0028FAD1A783F8E746
:104AE0003000002098040020240000202000002036
:104AF0000AD7233B00401C450000A04010B5029C93
:104B000080E81E000021016110BD2DE9F0418846BA
:104B100004460168C06801F02FFF0746616801F094
:104B20002BFF0146384601F09BFF2061A568064631
:104B30002946404602F0FAF9314602F0EFF82946DC
:104B400001F01AFF0546A06031464FF07E5002F09A
:104B5000EDF9394602F0E2F8E0602846BDE8F08160
:104B60003EB50021174800910191154A029102605B
:104B70009215826001250573017502244FF46022AD
:104B80000461C2614160FDF7BFFB08B1FDF7CCFADB
:104B900005200094CDE9015069460A48FDF732FB33
:104BA00008B1FDF7C1FA0320CDE9000469460548C4
:104BB000FDF728FB002801D0FDF7B6FA3EBD000046
:104BC00000240140FC040020094808B5416941F077
:104BD000010141614069002200F00100009011468E
:104BE0000B20FEF771FABDE808400B20FEF75EBA15
:104BF000001002402DE9F04186B0002430480094B6
:104C0000019402940394816941F0100181618169EA
:104C100001F010010491816941F004018161816911
:104C200001F004010491816941F008018161816909
:104C300001F008010491816941F0200181618169DD
:104C400001F020010491816941F040018161806996
:104C50001C4E00F040000490002202213046FEF776
:104C60001AF8DFF8648001220B214046FEF713F8A2
:104C700002250120CDE9005069463046CDE90245C4
:104C8000FDF708FF0326CDE902461127CDE90067AD
:104C900069464046FDF7FEFE0820CDE9000769465B
:104CA0004046CDE90245FDF7F5FE00966946074806
:104CB000CDE90145FDF7EEFE06B0BDE8F08100004C
:104CC000001002400008014000140140001801409B
:104CD0000D4810B50B4901600C49416000214FF4AB
:104CE00080428160C0E9031241618161C16101625A
:104CF000FDF7DCFF002803D0BDE81040FDF714BA33
:104D000010BD00000054004070050020A086010086
:104D10000D4810B50B4901600C49416000214FF46A
:104D200080428160C0E9031241618161C161016219
:104D3000FDF7BCFF002803D0BDE81040FDF7F4B933
:104D400010BD000000580040C4050020A0860100EE
:104D50007CB5002419480194174900940160611E34
:104D6000C0E90114FEF760FD08B1FDF7DDF9042587
:104D70008DF8045037208DF805008DF8064001228B
:104D800001A90E48FEF720FE08B1FDF7CDF98DF818
:104D900000508DF8015024208DF8020021208DF85C
:104DA0000300012269460548FEF7ACFD002801D04A
:104DB000FDF7BAF97CBD000000280040180600206D
:104DC00010B586B000241648009401940294039410
:104DD00004944FF08041059401604721C0E901141B
:104DE0004FF6FF71C0E903148461FEF7B5FE08B108
:104DF000FDF79AF94FF48050009069460848FEF795
:104E00007CFF08B1FDF790F9049404A904480594C7
:104E1000FEF764FE002801D0FDF786F906B010BD4C
:104E20002C06002010B586B0002418480094019488
:104E300002940394049414490594016041F61F41BF
:104E4000C0E9011442F20F71C0E9031480218161AD
:104E5000FEF782FE08B1FDF767F94FF4805000902D
:104E600069460A48FEF749FF08B1FDF75DF9049469
:104E700004A906480594FEF731FE002801D0FDF78D
:104E800053F906B010BD0000000400407406002075
:104E90000C4810B50A4901604FF4165141600021D9
:104EA00081600C22C160C0E904128161C161FFF719
:104EB0007FF9002803D0BDE81040FDF735B910BDDB
:104EC00000380140BC0600200C4810B50A490160BA
:104ED0004FF4E1314160002181600C22C160C0E9E2
:104EE00004128161C161FFF763F9002803D0BDE8B6
:104EF0001040FDF719B910BD004400400407002020
:104F00000C4810B50A4901604FF416514160002168
:104F100081600C22C160C0E904128161C161FFF7A8
:104F200047F9002803D0BDE81040FDF7FDB810BDDB
:104F3000004800404C070020FEE7FEE770B5002463
:104F400004F1B000C0B200F0B1F9002000F0AEF9F9
:104F5000102000F0ABF90025002000F0B9F96D1C1D
:104F6000EDB2802DF8D3641CE4B2082CE8D370BDF8
:104F700070B5C820FDF77CFD044D0024285D00F0CD
:104F800095F9641CE4B2172CF8D370BD0000002022
:104F900010B50446B031C8B200F088F9102040EADC
:104FA000141000F083F904F00F00BDE8104000F089
:104FB0007DB900002DE9F047203A0024089E0F46F5
:104FC0008146D5B27F2803D900208F1C8146FFB2CD
:104FD000102B394612D0FFF7DBFF1B4905EB4500CC
:104FE00001EB4005285D0EB1C043C0B200F070F97E
:104FF000641CE4B2062CF5D3BDE8F087FFF7C8FFC8
:10500000DFF8488004EB051118F801000EB1C04329
:10501000C0B200F05DF9641CE4B2082CF2D37F1C2E
:10502000F9B24846FFF7B4FF0024474604EB0510E9
:105030003844007A0EB1C043C0B200F049F9641C94
:10504000E4B2082CF2D3D7E7FE70000826730008FC
:105050002DE9FF4F81B00026DDE90EA91D469346DC
:10506000804634464FEA5A0727E0281B401EC1B24B
:105070000A2000F00FFEBBFBF0F00A21B0FBF1F2BA
:1050800001FB120026B9691E8C4201DA48B10126E3
:105090003030C2B207FB0480C0B25346CDF8009056
:1050A00006E007FB0480C0B253462022CDF80090F2
:1050B0000299FFF77FFF641CE4B2AC42D5D305B080
:1050C000BDE8F08F2DE9FF4F83B08146DDF840B099
:1050D000129F1C4690464FF0000A104612F1FF4FF7
:1050E00006D35C1C88F00040E4B24FF0010A804611
:1050F00001F078FD019011980025460828E0601B1A
:10510000401EC1B20A2000F0C5FD0199B1FBF0F1CB
:105110000A20B1FBF0F200FB1210029929B9611EBE
:105120008D4202DA48B1012102913030C2B206FB51
:105130000590C0B20097119B05E006FB0590119BFE
:10514000C0B2009720220499FFF734FF6D1CEDB226
:10515000A542D4D306FB0490C0B200972E22119B27
:105160000499FFF727FF59460A2000F093FD01F04C
:105170008DFD0546019801F071FD414601F0CBFE21
:10518000294601F0CBFD01F02DFD804600251CE0F5
:10519000ABEB0500401EC1B20A2000F07BFDB8FB5E
:1051A000F0F10A20B1FBF0F200FB12112A1909F10B
:1051B000050006FB02003031CAB2C0B20097119B55
:1051C0000499FFF7F7FE6D1CEDB25D45E0D3BAF12F
:1051D000000F06D000972D224846119B0499FFF737
:1051E000E9FE07B0BDE8F08FFEB5002402271025C8
:1051F00000972D4ECDE901543B4621462046B26B27
:10520000FFF760FF0097CDE9015402230021282019
:10521000F26BFFF757FF0097CDE9015402231946BF
:105220000020726CFFF74EFF0097CDE90154022376
:1052300019462820326CFFF745FFCDE900540523BD
:10524000F28A04210020FFF703FFFDF729FDCDE9D5
:1052500000540246082306210020FFF7F9FECDE99D
:105260000054082306214020B26CFFF7F1FE00F045
:1052700001FC4FF0010308B1012200E00022CDE95A
:10528000005404213220FFF7E3FE00F00FFF4FF03F
:10529000010308B1012200E00022CDE900540421FD
:1052A0003C20FFF7D5FEFEBD3000002001B584B0E4
:1052B00001214FF4807204A88DE807000B460022FC
:1052C00078210248FDF7B6FD05B000BD700500204D
:1052D00001B584B001214FF4807204A88DE8070065
:1052E0000B46402278210248FDF7A4FD05B000BD21
:1052F000700500207047010901EB810100F00F00EB
:1053000000EB4100C0B2704770B50446FDF7C8FC21
:1053100005464FF47A7606E0FDF7C2FC401BB0422A
:1053200001D9032070BD206840688006F4D520684C
:10533000416841F010014160002070BD70B5044625
:105340000068416821F010014160FDF7A9FC0546A5
:105350004FF47A7607E000BFFDF7A2FC401BB04295
:1053600001D9032070BD206840688006F4D5002074
:1053700070BD00000148FEF737BA00001806002093
:105380000168086A496A89B241EA004070470068CA
:1053900081698AB2C1698BB2816989B28A4203D0BC
:1053A000C06961F31F40704743EA02407047F0B59F
:1053B0006424C1EBC1030927A500072603EB0113F1
:1053C0000329B3FBF7F100F5FA60114401440AD256
:1053D000401EB0FBF4F201EB9001B0FBF5F0891A2E
:1053E0000844001D08E0B0FBF4F201EB9001B0FBB3
:1053F000F5F0891A0844801CB0FBF6F106FB110099
:10540000C0B2F0BD70B50D4606460024FFF77CFF24
:1054100048B93168280C08623168A8B24862304641
:10542000FFF78CFF00B10124204670BD70B50D461A
:1054300006460024FFF768FF48B93168280C8861E8
:105440003168A8B2C8613046FFF778FF00B1012487
:10545000204670BD1FB50020019002904FF40060FF
:1054600000900320039069460148FDF713FB1FBD20
:10547000000C01401FB54FF4006000900120019026
:1054800002900320039069460148FDF703FB1FBD0E
:10549000000C01407047FDF7B1BD30B595B0282133
:1054A0006846FBF79AF814210AA8FBF796F818212A
:1054B0000FA8FBF792F80920012100904FF48030EB
:1054C000002404910691CDE901040225CDE907509D
:1054D0004FF4E01009906846FDF7F4FF08B172B68A
:1054E000FEE70F20CDE90A054FF48060CDE90C40BE
:1054F00002210AA80E94FDF703FF08B172B6FEE779
:1055000003200F904FF400701090800111900FA8AD
:10551000FDF780FE002801D072B6FEE715B030BD61
:10552000704700000148FEF757BC000074060020D9
:10553000F0B50268204C214D214E224F224B4FF0F6
:10554000804CA04209D0984207D0604505D0A842BF
:1055500003D0B04201D0B84204D122F0700E4A68A4
:1055600042EA0E02A04209D0984207D0604505D019
:10557000A84203D0B04201D0B84203D122F4407512
:10558000CA682A434D6922F080022A4302608A6871
:10559000C2620A688262A04201D0984201D10969C0
:1055A0000163012141610169C90703D0016921F04B
:1055B00001010161F0BD0000002C01400004004029
:1055C00000080040000C00400034014010B5846821
:1055D00042EA032224F47F440A432243826010BD3E
:1055E000826822F070020A4342F00701816070472E
:1055F00010B5036A046A24F001040462846924F08B
:10560000F00444EA021423F00A020A4384610262AD
:1056100010BD10B5036A046A24F0100404628469A2
:1056200023F0A00324F4704444EA023243EA011157
:105630008261016210BD10B5406A0021C185C1843C
:10564000FEF77EFC10BD01680C3151E8002F22F4FA
:10565000907241E80023002BF5D10168143151E824
:10566000002F22F0010241E80023002BF5D1016B4D
:10567000012909D101680C3151E8002F22F01002F4
:1056800041E80023002BF5D1202180F842100021B1
:105690000163704708B590F84210222901D002201A
:1056A00008BD82684FF480539A4201D1016921B14B
:1056B000816A9A421BD04AB10AE00268816A526844
:1056C000C2F308020A80816A891C08E0026972B18B
:1056D0000268526802F07F020A70816A491C816286
:1056E000C18D491E0904090CC18503D01BE0026865
:1056F0005268F1E70168CA6822F02002CA600168B6
:10570000CA6822F48072CA6001684A6922F0010204
:105710004A61202180F8421000214163026B012A76
:1057200003D0FEF733FE002008BD016301680C3191
:1057300051E8002F22F0100241E80023002BF5D1A0
:1057400001680A68D20602D50A6849680091818D0D
:10575000FEF7F5FBE7E7000070B504460068016955
:10576000E26821F44051114301612169A0680843B6
:10577000616908432168CA6841F20C639A43024395
:10578000CA6020684169A26921F4407111434161F6
:105790001E492068884202D1FDF75EFE01E0FDF758
:1057A0004BFE00EBC00101EB001260686421800039
:1057B000B2FBF0F3B3FBF1F36FF018067343B2FBE7
:1057C000F0F5B2FBF0F605EB8305322303EB05158C
:1057D000B5FBF1F5B6FBF1F605F0F00505EB0615A6
:1057E000B2FBF0F6B2FBF0F0B0FBF1F06FF0180294
:1057F000504306EB800003EB0010B0FBF1F0216892
:1058000000F00F002844886070BD0000003801409F
:1058100081628285C28500214164222180F8421084
:10582000016921B10168CA6842F48072CA600168E6
:105830004A6942F001024A610068C16841F02001F2
:10584000C1600020704700000148FEF77BBB0000EC
:10585000BC0600200148FEF775BB000004070020CD
:105860000148FEF76FBB00004C070020FEE749002F
:1058700050EAC12018BF04204A0D18BF40F00100B3
:1058800040F2FF72B2EB515F08BF40F00200012806
:1058900008BF052070470907090E002804DB00F146
:1058A000E02080F80014704700F00F0000F1E020C5
:1058B00080F8141D704730380A2801D20120704743
:1058C00000207047084910B5881EFCF73AFBFCF72A
:1058D0005BFA0549891F881C00F08EFAFFF792F8E1
:1058E000BDE8104000F0EEBB4A000020114808B5AA
:1058F000C16941F08051C161C16901F080510091DD
:10590000C16941F00061C161C06900F000600090B0
:10591000FDF71EFC0848016811B10021016008BDB7
:10592000012101600A20FDF7A3F8BDE80840FDF75A
:10593000FDBB000000100240046C00402DE9F84F50
:1059400000242B4D0E46012802D0022833D035E02A
:105950002848006801F046F90090688B8046C0B284
:1059600001F094F96FF0070A514601F08AFB0746EF
:105970004FEA182001F08AF9394600F0FDFF804611
:105980001D48006801F02EF98346288B8146C0B27D
:1059900001F07CF9514601F074FB07464FEA1920EB
:1059A00001F074F9394600F0E7FFEB8A42465946A8
:1059B000FCF794FB01E000F07FFAEC72687B864212
:1059C00013D00E486E73FA21047044708470C47052
:1059D000047144718471C47101724672BDE8F84F5C
:1059E00001460A220648FEF7F7BCBDE8F88F000022
:1059F0003000002020000020240000208C04002023
:105A00004C07002070B54FF6FA75094E281A84B27B
:105A1000306844623046FEF7F5F8306801E0416ACC
:105A20008CB2AC42FBD3BDE870400148FEF752B9DE
:105A30002C06002030B589B0154604460B460BA253
:105A400020216846FAF752FC69462046FAF794FD91
:105A5000040007D06846FAF7A1FD005D312803D0A5
:105A60000020287009B030BD0120FAE722257322FA
:105A70003A22000010B501210348FDF707F900287C
:105A800000D0012010BD0000001801400D4B01287E
:105A900006D002280AD0032813D169B100220CE0F5
:105AA00009B1002200E00122012107E009B1002232
:105AB00000E00122022101E0012208211846FDF741
:105AC000EAB87047001401402DE9F041324C0E460F
:105AD00015462178012913D0012856D00021022033
